{
  "contractName": "StudentGradeManagement",
  "abi": [
    {
      "inputs": [],
      "stateMutability": "nonpayable",
      "type": "constructor"
    },
    {
      "anonymous": false,
      "inputs": [
        {
          "indexed": false,
          "internalType": "uint256",
          "name": "requestId",
          "type": "uint256"
        },
        {
          "indexed": false,
          "internalType": "bool",
          "name": "isApproved",
          "type": "bool"
        }
      ],
      "name": "CourseApproved",
      "type": "event"
    },
    {
      "anonymous": false,
      "inputs": [
        {
          "indexed": false,
          "internalType": "uint256",
          "name": "requestId",
          "type": "uint256"
        },
        {
          "indexed": false,
          "internalType": "address",
          "name": "lecturerAddress",
          "type": "address"
        },
        {
          "indexed": false,
          "internalType": "string",
          "name": "lecturerName",
          "type": "string"
        },
        {
          "indexed": false,
          "internalType": "string",
          "name": "courseName",
          "type": "string"
        }
      ],
      "name": "CourseRequested",
      "type": "event"
    },
    {
      "anonymous": false,
      "inputs": [
        {
          "indexed": false,
          "internalType": "string",
          "name": "studentId",
          "type": "string"
        },
        {
          "indexed": false,
          "internalType": "string",
          "name": "courseName",
          "type": "string"
        },
        {
          "indexed": false,
          "internalType": "uint256",
          "name": "grade",
          "type": "uint256"
        }
      ],
      "name": "GradeAdded",
      "type": "event"
    },
    {
      "anonymous": false,
      "inputs": [
        {
          "indexed": false,
          "internalType": "string",
          "name": "studentId",
          "type": "string"
        },
        {
          "indexed": false,
          "internalType": "string",
          "name": "courseName",
          "type": "string"
        },
        {
          "indexed": false,
          "internalType": "address",
          "name": "lecturerAddress",
          "type": "address"
        }
      ],
      "name": "StudentAddedToCourse",
      "type": "event"
    },
    {
      "anonymous": false,
      "inputs": [
        {
          "indexed": false,
          "internalType": "address",
          "name": "studentAddress",
          "type": "address"
        },
        {
          "indexed": false,
          "internalType": "string",
          "name": "studentId",
          "type": "string"
        },
        {
          "indexed": false,
          "internalType": "string",
          "name": "studentName",
          "type": "string"
        }
      ],
      "name": "StudentRegistered",
      "type": "event"
    },
    {
      "inputs": [
        {
          "internalType": "uint256",
          "name": "",
          "type": "uint256"
        }
      ],
      "name": "courseRequests",
      "outputs": [
        {
          "internalType": "address",
          "name": "lecturerAddress",
          "type": "address"
        },
        {
          "internalType": "string",
          "name": "lecturerName",
          "type": "string"
        },
        {
          "internalType": "string",
          "name": "courseName",
          "type": "string"
        },
        {
          "internalType": "bool",
          "name": "isApproved",
          "type": "bool"
        }
      ],
      "stateMutability": "view",
      "type": "function",
      "constant": true
    },
    {
      "inputs": [
        {
          "internalType": "string",
          "name": "",
          "type": "string"
        },
        {
          "internalType": "uint256",
          "name": "",
          "type": "uint256"
        }
      ],
      "name": "courseStudents",
      "outputs": [
        {
          "internalType": "address",
          "name": "",
          "type": "address"
        }
      ],
      "stateMutability": "view",
      "type": "function",
      "constant": true
    },
    {
      "inputs": [
        {
          "internalType": "address",
          "name": "",
          "type": "address"
        },
        {
          "internalType": "string",
          "name": "",
          "type": "string"
        }
      ],
      "name": "grades",
      "outputs": [
        {
          "internalType": "uint256",
          "name": "",
          "type": "uint256"
        }
      ],
      "stateMutability": "view",
      "type": "function",
      "constant": true
    },
    {
      "inputs": [
        {
          "internalType": "address",
          "name": "",
          "type": "address"
        }
      ],
      "name": "lecturers",
      "outputs": [
        {
          "internalType": "string",
          "name": "lecturerName",
          "type": "string"
        },
        {
          "internalType": "bool",
          "name": "isAuthorized",
          "type": "bool"
        }
      ],
      "stateMutability": "view",
      "type": "function",
      "constant": true
    },
    {
      "inputs": [
        {
          "internalType": "string",
          "name": "",
          "type": "string"
        }
      ],
      "name": "studentIdToAddress",
      "outputs": [
        {
          "internalType": "address",
          "name": "",
          "type": "address"
        }
      ],
      "stateMutability": "view",
      "type": "function",
      "constant": true
    },
    {
      "inputs": [
        {
          "internalType": "address",
          "name": "",
          "type": "address"
        }
      ],
      "name": "students",
      "outputs": [
        {
          "internalType": "string",
          "name": "studentId",
          "type": "string"
        },
        {
          "internalType": "string",
          "name": "studentName",
          "type": "string"
        }
      ],
      "stateMutability": "view",
      "type": "function",
      "constant": true
    },
    {
      "inputs": [],
      "name": "trainingDepartment",
      "outputs": [
        {
          "internalType": "address",
          "name": "",
          "type": "address"
        }
      ],
      "stateMutability": "view",
      "type": "function",
      "constant": true
    },
    {
      "inputs": [
        {
          "internalType": "address",
          "name": "studentAddress",
          "type": "address"
        },
        {
          "internalType": "string",
          "name": "studentId",
          "type": "string"
        },
        {
          "internalType": "string",
          "name": "studentName",
          "type": "string"
        }
      ],
      "name": "registerStudent",
      "outputs": [],
      "stateMutability": "nonpayable",
      "type": "function"
    },
    {
      "inputs": [
        {
          "internalType": "uint256",
          "name": "requestId",
          "type": "uint256"
        },
        {
          "internalType": "bool",
          "name": "isApproved",
          "type": "bool"
        }
      ],
      "name": "approveCourseRequest",
      "outputs": [],
      "stateMutability": "nonpayable",
      "type": "function"
    },
    {
      "inputs": [
        {
          "internalType": "string",
          "name": "lecturerName",
          "type": "string"
        },
        {
          "internalType": "string",
          "name": "courseName",
          "type": "string"
        }
      ],
      "name": "requestCourse",
      "outputs": [],
      "stateMutability": "nonpayable",
      "type": "function"
    },
    {
      "inputs": [
        {
          "internalType": "string",
          "name": "studentId",
          "type": "string"
        },
        {
          "internalType": "string",
          "name": "courseName",
          "type": "string"
        }
      ],
      "name": "addStudentToCourse",
      "outputs": [],
      "stateMutability": "nonpayable",
      "type": "function"
    },
    {
      "inputs": [
        {
          "internalType": "string",
          "name": "studentId",
          "type": "string"
        },
        {
          "internalType": "string",
          "name": "courseName",
          "type": "string"
        },
        {
          "internalType": "uint256",
          "name": "grade",
          "type": "uint256"
        }
      ],
      "name": "addGrade",
      "outputs": [],
      "stateMutability": "nonpayable",
      "type": "function"
    },
    {
      "inputs": [
        {
          "internalType": "string",
          "name": "courseName",
          "type": "string"
        }
      ],
      "name": "getGrade",
      "outputs": [
        {
          "internalType": "uint256",
          "name": "",
          "type": "uint256"
        }
      ],
      "stateMutability": "view",
      "type": "function",
      "constant": true
    },
    {
      "inputs": [],
      "name": "getCourseRequests",
      "outputs": [
        {
          "internalType": "address[]",
          "name": "",
          "type": "address[]"
        },
        {
          "internalType": "string[]",
          "name": "",
          "type": "string[]"
        },
        {
          "internalType": "string[]",
          "name": "",
          "type": "string[]"
        },
        {
          "internalType": "bool[]",
          "name": "",
          "type": "bool[]"
        }
      ],
      "stateMutability": "view",
      "type": "function",
      "constant": true
    },
    {
      "inputs": [
        {
          "internalType": "string",
          "name": "courseName",
          "type": "string"
        }
      ],
      "name": "getStudentsByCourse",
      "outputs": [
        {
          "internalType": "address[]",
          "name": "",
          "type": "address[]"
        },
        {
          "internalType": "string[]",
          "name": "",
          "type": "string[]"
        },
        {
          "internalType": "string[]",
          "name": "",
          "type": "string[]"
        },
        {
          "internalType": "uint256[]",
          "name": "",
          "type": "uint256[]"
        }
      ],
      "stateMutability": "view",
      "type": "function",
      "constant": true
    },
    {
      "inputs": [
        {
          "internalType": "string",
          "name": "courseName",
          "type": "string"
        }
      ],
      "name": "getCourseStudentsPublic",
      "outputs": [
        {
          "internalType": "address[]",
          "name": "",
          "type": "address[]"
        },
        {
          "internalType": "string[]",
          "name": "",
          "type": "string[]"
        },
        {
          "internalType": "string[]",
          "name": "",
          "type": "string[]"
        },
        {
          "internalType": "uint256[]",
          "name": "",
          "type": "uint256[]"
        }
      ],
      "stateMutability": "view",
      "type": "function",
      "constant": true
    }
  ],
  "bytecode": "0x608060405234801561001057600080fd5b50600080546001600160a01b031916331790556126d7806100326000396000f3fe608060405234801561001057600080fd5b50600436106100ff5760003560e01c80635e463a4f11610097578063b91a3abe11610066578063b91a3abe14610235578063c104e2d514610248578063d4f4d1141461025b578063fc9250601461026e576100ff565b80635e463a4f146101e657806362e88359146101f9578063a6c807a914610201578063a8ea621214610222576100ff565b80633496fbe3116100d35780633496fbe31461017d5780633ecac8d8146101905780634b888399146101b0578063579f41ce146101d3576100ff565b806287171a14610104578063102b453b146101255780632ae7b90014610145578063320f5a441461015a575b600080fd5b61010c61028f565b60405161011c949392919061229f565b60405180910390f35b610138610133366004611eff565b6106f4565b60405161011c9190612201565b610158610153366004611e8f565b61071a565b005b61016d61016836600461203a565b610826565b60405161011c9493929190612255565b61015861018b366004611f39565b61097f565b6101a361019e366004611e44565b610aa0565b60405161011c919061258d565b6101c36101be366004611eff565b610ace565b60405161011c949392919061231e565b6101c36101e1366004611eff565b610f24565b6101386101f4366004611ff8565b61139f565b6101386113e6565b61021461020f366004611e23565b6113f5565b60405161011c9291906123b0565b610158610230366004611f8f565b611521565b610158610243366004612052565b611775565b610158610256366004611f39565b611895565b6101a3610269366004611eff565b611b9d565b61028161027c366004611e23565b611bd1565b60405161011c92919061238c565b60608060608060006001805490506001600160401b038111156102c257634e487b7160e01b600052604160045260246000fd5b6040519080825280602002602001820160405280156102eb578160200160208202803683370190505b506001549091506000906001600160401b0381111561031a57634e487b7160e01b600052604160045260246000fd5b60405190808252806020026020018201604052801561034d57816020015b60608152602001906001900390816103385790505b506001549091506000906001600160401b0381111561037c57634e487b7160e01b600052604160045260246000fd5b6040519080825280602002602001820160405280156103af57816020015b606081526020019060019003908161039a5790505b506001549091506000906001600160401b038111156103de57634e487b7160e01b600052604160045260246000fd5b604051908082528060200260200182016040528015610407578160200160208202803683370190505b50905060005b6001548110156106e5576001818154811061043857634e487b7160e01b600052603260045260246000fd5b600091825260209091206004909102015485516001600160a01b039091169086908390811061047757634e487b7160e01b600052603260045260246000fd5b60200260200101906001600160a01b031690816001600160a01b031681525050600181815481106104b857634e487b7160e01b600052603260045260246000fd5b906000526020600020906004020160010180546104d490612629565b80601f016020809104026020016040519081016040528092919081815260200182805461050090612629565b801561054d5780601f106105225761010080835404028352916020019161054d565b820191906000526020600020905b81548152906001019060200180831161053057829003601f168201915b505050505084828151811061057257634e487b7160e01b600052603260045260246000fd5b60200260200101819052506001818154811061059e57634e487b7160e01b600052603260045260246000fd5b906000526020600020906004020160020180546105ba90612629565b80601f01602080910402602001604051908101604052809291908181526020018280546105e690612629565b80156106335780601f1061060857610100808354040283529160200191610633565b820191906000526020600020905b81548152906001019060200180831161061657829003601f168201915b505050505083828151811061065857634e487b7160e01b600052603260045260246000fd5b60200260200101819052506001818154811061068457634e487b7160e01b600052603260045260246000fd5b906000526020600020906004020160030160009054906101000a900460ff168282815181106106c357634e487b7160e01b600052603260045260246000fd5b91151560209283029190910190910152806106dd81612664565b91505061040d565b50929791965094509092509050565b80516020818301810180516005825292820191909301209152546001600160a01b031681565b6000546001600160a01b0316331461074d5760405162461bcd60e51b8152600401610744906124dd565b60405180910390fd5b6001600160a01b0383166000908152600260209081526040909120835161077692850190611c78565b506001600160a01b038316600090815260026020908152604090912082516107a692600190920191840190611c78565b50826005836040516107b8919061214a565b90815260405190819003602001812080546001600160a01b03939093166001600160a01b0319909316929092179091557f5a50055b3981e19f1c8cb31d2bf002360afb82c9a429fa8d5774508a689f75c99061081990859085908590612215565b60405180910390a1505050565b6001818154811061083657600080fd5b6000918252602090912060049091020180546001820180546001600160a01b0390921693509061086590612629565b80601f016020809104026020016040519081016040528092919081815260200182805461089190612629565b80156108de5780601f106108b3576101008083540402835291602001916108de565b820191906000526020600020905b8154815290600101906020018083116108c157829003601f168201915b5050505050908060020180546108f390612629565b80601f016020809104026020016040519081016040528092919081815260200182805461091f90612629565b801561096c5780601f106109415761010080835404028352916020019161096c565b820191906000526020600020905b81548152906001019060200180831161094f57829003601f168201915b5050506003909301549192505060ff1684565b6001805460408051608081018252338152602080820187815292820186905260006060830181905284860186559490945280517fb10e2d527612073b26eecdfd717e6a320cf44b4afac2b0732d9fcbe2b7fa0cf66004850290810180546001600160a01b0319166001600160a01b0390931692909217825592518051949592949193610a32937fb10e2d527612073b26eecdfd717e6a320cf44b4afac2b0732d9fcbe2b7fa0cf790910192910190611c78565b5060408201518051610a4e916002840191602090910190611c78565b50606091909101516003909101805460ff19169115159190911790556040517f634c733ba3fc7bd4e7378e3176327523435907abfbe4c9cee20751ea399fd19c90610819908390339087908790612596565b6003602090815260009283526040909220815180830184018051928152908401929093019190912091525481565b6060806060806000600486604051610ae6919061214a565b9081526040805191829003602090810183208054808302850183019093528284529190830182828015610b4257602002820191906000526020600020905b81546001600160a01b03168152600190910190602001808311610b24575b50505050509050600081516001600160401b03811115610b7257634e487b7160e01b600052604160045260246000fd5b604051908082528060200260200182016040528015610ba557816020015b6060815260200190600190039081610b905790505b509050600082516001600160401b03811115610bd157634e487b7160e01b600052604160045260246000fd5b604051908082528060200260200182016040528015610c0457816020015b6060815260200190600190039081610bef5790505b509050600083516001600160401b03811115610c3057634e487b7160e01b600052604160045260246000fd5b604051908082528060200260200182016040528015610c59578160200160208202803683370190505b50905060005b8451811015610f145760026000868381518110610c8c57634e487b7160e01b600052603260045260246000fd5b60200260200101516001600160a01b03166001600160a01b031681526020019081526020016000206000018054610cc290612629565b80601f0160208091040260200160405190810160405280929190818152602001828054610cee90612629565b8015610d3b5780601f10610d1057610100808354040283529160200191610d3b565b820191906000526020600020905b815481529060010190602001808311610d1e57829003601f168201915b5050505050848281518110610d6057634e487b7160e01b600052603260045260246000fd5b602002602001018190525060026000868381518110610d8f57634e487b7160e01b600052603260045260246000fd5b60200260200101516001600160a01b03166001600160a01b031681526020019081526020016000206001018054610dc590612629565b80601f0160208091040260200160405190810160405280929190818152602001828054610df190612629565b8015610e3e5780601f10610e1357610100808354040283529160200191610e3e565b820191906000526020600020905b815481529060010190602001808311610e2157829003601f168201915b5050505050838281518110610e6357634e487b7160e01b600052603260045260246000fd5b602002602001018190525060036000868381518110610e9257634e487b7160e01b600052603260045260246000fd5b60200260200101516001600160a01b03166001600160a01b031681526020019081526020016000208a604051610ec8919061214a565b908152602001604051809103902054828281518110610ef757634e487b7160e01b600052603260045260246000fd5b602090810291909101015280610f0c81612664565b915050610c5f565b5092989197509550909350915050565b3360009081526006602052604090206001015460609081908190819060ff16610f5f5760405162461bcd60e51b815260040161074490612452565b6000600486604051610f71919061214a565b9081526040805191829003602090810183208054808302850183019093528284529190830182828015610fcd57602002820191906000526020600020905b81546001600160a01b03168152600190910190602001808311610faf575b50505050509050600081516001600160401b03811115610ffd57634e487b7160e01b600052604160045260246000fd5b60405190808252806020026020018201604052801561103057816020015b606081526020019060019003908161101b5790505b509050600082516001600160401b0381111561105c57634e487b7160e01b600052604160045260246000fd5b60405190808252806020026020018201604052801561108f57816020015b606081526020019060019003908161107a5790505b509050600083516001600160401b038111156110bb57634e487b7160e01b600052604160045260246000fd5b6040519080825280602002602001820160405280156110e4578160200160208202803683370190505b50905060005b8451811015610f14576002600086838151811061111757634e487b7160e01b600052603260045260246000fd5b60200260200101516001600160a01b03166001600160a01b03168152602001908152602001600020600001805461114d90612629565b80601f016020809104026020016040519081016040528092919081815260200182805461117990612629565b80156111c65780601f1061119b576101008083540402835291602001916111c6565b820191906000526020600020905b8154815290600101906020018083116111a957829003601f168201915b50505050508482815181106111eb57634e487b7160e01b600052603260045260246000fd5b60200260200101819052506002600086838151811061121a57634e487b7160e01b600052603260045260246000fd5b60200260200101516001600160a01b03166001600160a01b03168152602001908152602001600020600101805461125090612629565b80601f016020809104026020016040519081016040528092919081815260200182805461127c90612629565b80156112c95780601f1061129e576101008083540402835291602001916112c9565b820191906000526020600020905b8154815290600101906020018083116112ac57829003601f168201915b50505050508382815181106112ee57634e487b7160e01b600052603260045260246000fd5b60200260200101819052506003600086838151811061131d57634e487b7160e01b600052603260045260246000fd5b60200260200101516001600160a01b03166001600160a01b031681526020019081526020016000208a604051611353919061214a565b90815260200160405180910390205482828151811061138257634e487b7160e01b600052603260045260246000fd5b60209081029190910101528061139781612664565b9150506110ea565b815160208184018101805160048252928201918501919091209190528054829081106113ca57600080fd5b6000918252602090912001546001600160a01b03169150829050565b6000546001600160a01b031681565b60026020526000908152604090208054819061141090612629565b80601f016020809104026020016040519081016040528092919081815260200182805461143c90612629565b80156114895780601f1061145e57610100808354040283529160200191611489565b820191906000526020600020905b81548152906001019060200180831161146c57829003601f168201915b50505050509080600101805461149e90612629565b80601f01602080910402602001604051908101604052809291908181526020018280546114ca90612629565b80156115175780601f106114ec57610100808354040283529160200191611517565b820191906000526020600020905b8154815290600101906020018083116114fa57829003601f168201915b5050505050905082565b3360009081526006602052604090206001015460ff166115535760405162461bcd60e51b815260040161074490612452565b6000600584604051611565919061214a565b908152604051908190036020019020546001600160a01b031690508061159d5760405162461bcd60e51b8152600401610744906124a6565b6000805b6001548110156116d957336001600160a01b0316600182815481106115d657634e487b7160e01b600052603260045260246000fd5b60009182526020909120600490910201546001600160a01b0316148015611679575084604051602001611609919061214a565b604051602081830303815290604052805190602001206001828154811061164057634e487b7160e01b600052603260045260246000fd5b90600052602060002090600402016002016040516020016116619190612166565b60405160208183030381529060405280519060200120145b80156116b95750600181815481106116a157634e487b7160e01b600052603260045260246000fd5b600091825260209091206003600490920201015460ff165b156116c757600191506116d9565b806116d181612664565b9150506115a1565b50806116f75760405162461bcd60e51b815260040161074490612556565b6001600160a01b03821660009081526003602052604090819020905184919061172190879061214a565b9081526020016040518091039020819055507f611e082166bea30b43d3b641c19af545aecd97e14c1abf078b30c6116ed062a28585856040516117669392919061241c565b60405180910390a15050505050565b6000546001600160a01b0316331461179f5760405162461bcd60e51b8152600401610744906124dd565b60015482106117c05760405162461bcd60e51b815260040161074490612526565b6000600183815481106117e357634e487b7160e01b600052603260045260246000fd5b90600052602060002090600402019050818160030160006101000a81548160ff02191690831515021790555081156118645780546001600160a01b039081166000908152600660205260408082206001908101805460ff191682179055845490931682529020908201805461185790612629565b611862929190611cfc565b505b7f4a595d8b22f642a2c59fa39a2098244b31745d3a57615834b2b31739d7e67bba83836040516108199291906125dd565b3360009081526006602052604090206001015460ff166118c75760405162461bcd60e51b815260040161074490612452565b60006005836040516118d9919061214a565b908152604051908190036020019020546001600160a01b03169050806119115760405162461bcd60e51b8152600401610744906124a6565b6000805b600154811015611a4d57336001600160a01b03166001828154811061194a57634e487b7160e01b600052603260045260246000fd5b60009182526020909120600490910201546001600160a01b03161480156119ed57508360405160200161197d919061214a565b60405160208183030381529060405280519060200120600182815481106119b457634e487b7160e01b600052603260045260246000fd5b90600052602060002090600402016002016040516020016119d59190612166565b60405160208183030381529060405280519060200120145b8015611a2d575060018181548110611a1557634e487b7160e01b600052603260045260246000fd5b600091825260209091206003600490920201015460ff165b15611a3b5760019150611a4d565b80611a4581612664565b915050611915565b5080611a6b5760405162461bcd60e51b815260040161074490612556565b6000805b600485604051611a7f919061214a565b90815260405190819003602001902054811015611b1357836001600160a01b0316600486604051611ab0919061214a565b90815260200160405180910390208281548110611add57634e487b7160e01b600052603260045260246000fd5b6000918252602090912001546001600160a01b03161415611b015760019150611b13565b80611b0b81612664565b915050611a6f565b5080611b9657600484604051611b29919061214a565b908152604051602091819003820181208054600181018255600091825292902090910180546001600160a01b0319166001600160a01b0386161790557fdd834fabd0e05adab8c85c2bc61369241cc1d0f76d8f5a164488e190f0f190a890611766908790879033906123de565b5050505050565b336000908152600360205260408082209051611bba90849061214a565b90815260200160405180910390205490505b919050565b600660205260009081526040902080548190611bec90612629565b80601f0160208091040260200160405190810160405280929190818152602001828054611c1890612629565b8015611c655780601f10611c3a57610100808354040283529160200191611c65565b820191906000526020600020905b815481529060010190602001808311611c4857829003601f168201915b5050506001909301549192505060ff1682565b828054611c8490612629565b90600052602060002090601f016020900481019282611ca65760008555611cec565b82601f10611cbf57805160ff1916838001178555611cec565b82800160010185558215611cec579182015b82811115611cec578251825591602001919060010190611cd1565b50611cf8929150611d77565b5090565b828054611d0890612629565b90600052602060002090601f016020900481019282611d2a5760008555611cec565b82601f10611d3b5780548555611cec565b82800160010185558215611cec57600052602060002091601f016020900482015b82811115611cec578254825591600101919060010190611d5c565b5b80821115611cf85760008155600101611d78565b80356001600160a01b0381168114611bcc57600080fd5b600082601f830112611db3578081fd5b81356001600160401b0380821115611dcd57611dcd61268b565b604051601f8301601f191681016020018281118282101715611df157611df161268b565b604052828152848301602001861015611e08578384fd5b82602086016020830137918201602001929092529392505050565b600060208284031215611e34578081fd5b611e3d82611d8c565b9392505050565b60008060408385031215611e56578081fd5b611e5f83611d8c565b915060208301356001600160401b03811115611e79578182fd5b611e8585828601611da3565b9150509250929050565b600080600060608486031215611ea3578081fd5b611eac84611d8c565b925060208401356001600160401b0380821115611ec7578283fd5b611ed387838801611da3565b93506040860135915080821115611ee8578283fd5b50611ef586828701611da3565b9150509250925092565b600060208284031215611f10578081fd5b81356001600160401b03811115611f25578182fd5b611f3184828501611da3565b949350505050565b60008060408385031215611f4b578182fd5b82356001600160401b0380821115611f61578384fd5b611f6d86838701611da3565b93506020850135915080821115611f82578283fd5b50611e8585828601611da3565b600080600060608486031215611fa3578283fd5b83356001600160401b0380821115611fb9578485fd5b611fc587838801611da3565b94506020860135915080821115611fda578384fd5b50611fe786828701611da3565b925050604084013590509250925092565b6000806040838503121561200a578182fd5b82356001600160401b0381111561201f578283fd5b61202b85828601611da3565b95602094909401359450505050565b60006020828403121561204b578081fd5b5035919050565b60008060408385031215612064578182fd5b823591506020830135801515811461207a578182fd5b809150509250929050565b6000815180845260208085019450808401835b838110156120bd5781516001600160a01b031687529582019590820190600101612098565b509495945050505050565b60008282518085526020808601955080818302840101818601855b8481101561211157601f198684030189526120ff83835161211e565b988401989250908301906001016120e3565b5090979650505050505050565b600081518084526121368160208601602086016125f9565b601f01601f19169290920160200192915050565b6000825161215c8184602087016125f9565b9190910192915050565b815460009081906002810460018083168061218257607f831692505b60208084108214156121a257634e487b7160e01b87526022600452602487fd5b8180156121b657600181146121c7576121f3565b60ff198616895284890196506121f3565b6121d08a6125ed565b885b868110156121eb5781548b8201529085019083016121d2565b505084890196505b509498975050505050505050565b6001600160a01b0391909116815260200190565b6001600160a01b03841681526060602082018190526000906122399083018561211e565b828103604084015261224b818561211e565b9695505050505050565b6001600160a01b03851681526080602082018190526000906122799083018661211e565b828103604084015261228b818661211e565b915050821515606083015295945050505050565b6000608082526122b26080830187612085565b6020838203818501526122c582886120c8565b915083820360408501526122d982876120c8565b84810360608601528551808252828701935090820190845b8181101561230f5784511515835293830193918301916001016122f1565b50909998505050505050505050565b6000608082526123316080830187612085565b60208382038185015261234482886120c8565b9150838203604085015261235882876120c8565b84810360608601528551808252828701935090820190845b8181101561230f57845183529383019391830191600101612370565b60006040825261239f604083018561211e565b905082151560208301529392505050565b6000604082526123c3604083018561211e565b82810360208401526123d5818561211e565b95945050505050565b6000606082526123f1606083018661211e565b8281036020840152612403818661211e565b91505060018060a01b0383166040830152949350505050565b60006060825261242f606083018661211e565b8281036020840152612441818661211e565b915050826040830152949350505050565b60208082526034908201527f436869206769616e67207669656e2064756f6320757920717579656e206d6f696040820152731031b79038babcb2b7103a343ab1903434b2b71760611b606082015260800190565b60208082526018908201527f53696e68207669656e206b686f6e6720746f6e207461692e0000000000000000604082015260600190565b60208082526029908201527f4368692070686f6e672064616f2074616f206d6f6920636f20717579656e2074604082015268343ab1903434b2b71760b91b606082015260800190565b6020808252601690820152752cb2ba9031b0ba9035b437b733903a37b7103a30b49760511b604082015260600190565b60208082526019908201527f486f63207068616e20636875612064756f632064757965742e00000000000000604082015260600190565b90815260200190565b8481526001600160a01b03841660208201526080604082018190526000906125c09083018561211e565b82810360608401526125d2818561211e565b979650505050505050565b9182521515602082015260400190565b60009081526020902090565b60005b838110156126145781810151838201526020016125fc565b83811115612623576000848401525b50505050565b60028104600182168061263d57607f821691505b6020821081141561265e57634e487b7160e01b600052602260045260246000fd5b50919050565b600060001982141561268457634e487b7160e01b81526011600452602481fd5b5060010190565b634e487b7160e01b600052604160045260246000fdfea26469706673582212206a6942c5d53ef9269da5a6682a94093207e7f70f19c0f4bcd06849f8d2cf52e664736f6c63430008000033",
  "immutableReferences": {},
  "source": "// SPDX-License-Identifier: MIT\r\npragma solidity ^0.8.0;\r\n\r\ncontract StudentGradeManagement {\r\n    address public trainingDepartment;\r\n\r\n    // Cu trc yu cu m lp hc phn\r\n    struct CourseRequest {\r\n        address lecturerAddress;\r\n        string lecturerName;\r\n        string courseName;\r\n        bool isApproved; // Trng thi: true = duyt, false = cha duyt/cha x l\r\n    }\r\n\r\n    // Cu trc thng tin sinh vin (khng cha mapping)\r\n    struct StudentGrade {\r\n        string studentId;\r\n        string studentName;\r\n    }\r\n\r\n    // Danh sch ging vin\r\n    struct Lecturer {\r\n        string lecturerName;\r\n        bool isAuthorized;\r\n    }\r\n\r\n    // Lu tr yu cu v d liu\r\n    CourseRequest[] public courseRequests; // Danh sch yu cu t ging vin\r\n    mapping(address => StudentGrade) public students; // Thng tin sinh vin\r\n    mapping(address => mapping(string => uint)) public grades; // im sinh vin: address -> courseName -> grade\r\n    mapping(string => address[]) public courseStudents; // Hc phn -> Danh sch sinh vin\r\n    mapping(string => address) public studentIdToAddress; // M SV -> a ch\r\n    mapping(address => Lecturer) public lecturers; // Thng tin ging vin\r\n\r\n    // S kin\r\n    event CourseRequested(uint requestId, address lecturerAddress, string lecturerName, string courseName);\r\n    event CourseApproved(uint requestId, bool isApproved);\r\n    event StudentAddedToCourse(string studentId, string courseName, address lecturerAddress);\r\n    event GradeAdded(string studentId, string courseName, uint grade);\r\n    event StudentRegistered(address studentAddress, string studentId, string studentName); // Thm s kin ny\r\n\r\n    modifier onlyTrainingDepartment() {\r\n        require(msg.sender == trainingDepartment, \"Chi phong dao tao moi co quyen thuc hien.\");\r\n        _;\r\n    }\r\n\r\n    modifier onlyAuthorizedLecturer() {\r\n        require(lecturers[msg.sender].isAuthorized, \"Chi giang vien duoc uy quyen moi co quyen thuc hien.\");\r\n        _;\r\n    }\r\n\r\n    constructor() {\r\n        trainingDepartment = msg.sender;\r\n    }\r\n\r\n    // --- Phng o To ---\r\n\r\n    // ng k sinh vin\r\n    function registerStudent(address studentAddress, string memory studentId, string memory studentName) public onlyTrainingDepartment {\r\n        students[studentAddress].studentId = studentId;\r\n        students[studentAddress].studentName = studentName;\r\n        studentIdToAddress[studentId] = studentAddress;\r\n        emit StudentRegistered(studentAddress, studentId, studentName);\r\n    }\r\n\r\n    // Duyt hoc t chi yu cu m lp\r\n    function approveCourseRequest(uint requestId, bool isApproved) public onlyTrainingDepartment {\r\n        require(requestId < courseRequests.length, \"Yeu cau khong ton tai.\");\r\n        CourseRequest storage request = courseRequests[requestId];\r\n        request.isApproved = isApproved;\r\n\r\n        // Nu duyt, thm ging vin vo danh sch c y quyn\r\n        if (isApproved) {\r\n            lecturers[request.lecturerAddress].isAuthorized = true;\r\n            lecturers[request.lecturerAddress].lecturerName = request.lecturerName;\r\n        }\r\n\r\n        emit CourseApproved(requestId, isApproved);\r\n    }\r\n\r\n    // --- Ging Vin ---\r\n\r\n    // Gi yu cu m lp hc phn\r\n    function requestCourse(string memory lecturerName, string memory courseName) public {\r\n        uint requestId = courseRequests.length;\r\n        courseRequests.push(CourseRequest(msg.sender, lecturerName, courseName, false));\r\n        emit CourseRequested(requestId, msg.sender, lecturerName, courseName);\r\n    }\r\n\r\n    // Thm sinh vin vo lp hc phn\r\n    function addStudentToCourse(string memory studentId, string memory courseName) public onlyAuthorizedLecturer {\r\n        address studentAddress = studentIdToAddress[studentId];\r\n        require(studentAddress != address(0), \"Sinh vien khong ton tai.\");\r\n\r\n        bool isCourseApproved = false;\r\n        for (uint i = 0; i < courseRequests.length; i++) {\r\n            if (\r\n                courseRequests[i].lecturerAddress == msg.sender &&\r\n                keccak256(abi.encodePacked(courseRequests[i].courseName)) == keccak256(abi.encodePacked(courseName)) &&\r\n                courseRequests[i].isApproved\r\n            ) {\r\n                isCourseApproved = true;\r\n                break;\r\n            }\r\n        }\r\n        require(isCourseApproved, \"Hoc phan chua duoc duyet.\");\r\n\r\n        bool studentExists = false;\r\n        for (uint i = 0; i < courseStudents[courseName].length; i++) {\r\n            if (courseStudents[courseName][i] == studentAddress) {\r\n                studentExists = true;\r\n                break;\r\n            }\r\n        }\r\n        if (!studentExists) {\r\n            courseStudents[courseName].push(studentAddress);\r\n            emit StudentAddedToCourse(studentId, courseName, msg.sender);\r\n        }\r\n    }\r\n    // Nhp im cho sinh vin\r\n    function addGrade(string memory studentId, string memory courseName, uint grade) public onlyAuthorizedLecturer {\r\n        address studentAddress = studentIdToAddress[studentId];\r\n        require(studentAddress != address(0), \"Sinh vien khong ton tai.\");\r\n\r\n        // Kim tra ging vin c quyn vi hc phn\r\n        bool isCourseApproved = false;\r\n        for (uint i = 0; i < courseRequests.length; i++) {\r\n            if (\r\n                courseRequests[i].lecturerAddress == msg.sender &&\r\n                keccak256(abi.encodePacked(courseRequests[i].courseName)) == keccak256(abi.encodePacked(courseName)) &&\r\n                courseRequests[i].isApproved\r\n            ) {\r\n                isCourseApproved = true;\r\n                break;\r\n            }\r\n        }\r\n        require(isCourseApproved, \"Hoc phan chua duoc duyet.\");\r\n\r\n        grades[studentAddress][courseName] = grade; // S dng mapping grades ring\r\n        emit GradeAdded(studentId, courseName, grade);\r\n    }\r\n\r\n    // --- Sinh Vin ---\r\n\r\n    // Tra cu im\r\n    function getGrade(string memory courseName) public view returns (uint) {\r\n        return grades[msg.sender][courseName]; // S dng mapping grades ring\r\n    }\r\n\r\n    // --- Hm h tr ---\r\n\r\n    // Ly danh sch yu cu m lp (cho c Phng o To v Ging Vin)\r\n    function getCourseRequests() public view returns (address[] memory, string[] memory, string[] memory, bool[] memory) {\r\n        address[] memory lecturerAddresses = new address[](courseRequests.length);\r\n        string[] memory lecturerNames = new string[](courseRequests.length);\r\n        string[] memory courseNames = new string[](courseRequests.length);\r\n        bool[] memory statuses = new bool[](courseRequests.length);\r\n\r\n        for (uint i = 0; i < courseRequests.length; i++) {\r\n            lecturerAddresses[i] = courseRequests[i].lecturerAddress;\r\n            lecturerNames[i] = courseRequests[i].lecturerName;\r\n            courseNames[i] = courseRequests[i].courseName;\r\n            statuses[i] = courseRequests[i].isApproved;\r\n        }\r\n        return (lecturerAddresses, lecturerNames, courseNames, statuses);\r\n    }\r\n\r\n    // Ly danh sch sinh vin theo hc phn (cho Ging Vin)\r\n    function getStudentsByCourse(string memory courseName) public view onlyAuthorizedLecturer returns (address[] memory, string[] memory, string[] memory, uint[] memory) {\r\n        address[] memory addresses = courseStudents[courseName];\r\n        string[] memory studentIds = new string[](addresses.length);\r\n        string[] memory studentNames = new string[](addresses.length);\r\n        uint[] memory studentGrades = new uint[](addresses.length);\r\n\r\n        for (uint i = 0; i < addresses.length; i++) {\r\n            studentIds[i] = students[addresses[i]].studentId;\r\n            studentNames[i] = students[addresses[i]].studentName;\r\n            studentGrades[i] = grades[addresses[i]][courseName];\r\n        }\r\n        return (addresses, studentIds, studentNames, studentGrades);\r\n    }\r\n\r\n    // Ly danh sch sinh vin theo hc phn (cho Sinh Vin)\r\n    function getCourseStudentsPublic(string memory courseName) public view returns (address[] memory, string[] memory, string[] memory, uint[] memory) {\r\n        address[] memory addresses = courseStudents[courseName];\r\n        string[] memory studentIds = new string[](addresses.length);\r\n        string[] memory studentNames = new string[](addresses.length);\r\n        uint[] memory studentGrades = new uint[](addresses.length);\r\n\r\n        for (uint i = 0; i < addresses.length; i++) {\r\n            studentIds[i] = students[addresses[i]].studentId;\r\n            studentNames[i] = students[addresses[i]].studentName;\r\n            studentGrades[i] = grades[addresses[i]][courseName]; // S dng mapping grades ring\r\n        }\r\n        return (addresses, studentIds, studentNames, studentGrades);\r\n    }\r\n}",
  "sourcePath": "C:\\file do an o day\\StudentGradeManagement\\contracts\\StudentGradeManagement.sol",
  "compiler": {
    "name": "solc",
    "version": "0.8.0+commit.c7dfd78e.Emscripten.clang"
  },
  "schemaVersion": "3.4.16",
  "updatedAt": "2025-03-27T04:46:53.172Z",
  "networkType": "ethereum",
  "devdoc": {
    "kind": "dev",
    "methods": {},
    "version": 1
  },
  "userdoc": {
    "kind": "user",
    "methods": {},
    "version": 1
  }
}